{
  "contractName": "DanStakingToken",
  "abi": [
    {
      "inputs": [],
      "stateMutability": "nonpayable",
      "type": "constructor"
    },
    {
      "anonymous": false,
      "inputs": [
        {
          "indexed": true,
          "internalType": "address",
          "name": "owner",
          "type": "address"
        },
        {
          "indexed": true,
          "internalType": "address",
          "name": "spender",
          "type": "address"
        },
        {
          "indexed": false,
          "internalType": "uint256",
          "name": "value",
          "type": "uint256"
        }
      ],
      "name": "Approval",
      "type": "event"
    },
    {
      "anonymous": false,
      "inputs": [
        {
          "indexed": true,
          "internalType": "address",
          "name": "previousOwner",
          "type": "address"
        },
        {
          "indexed": true,
          "internalType": "address",
          "name": "newOwner",
          "type": "address"
        }
      ],
      "name": "OwnershipTransferred",
      "type": "event"
    },
    {
      "anonymous": false,
      "inputs": [
        {
          "indexed": true,
          "internalType": "address",
          "name": "from",
          "type": "address"
        },
        {
          "indexed": true,
          "internalType": "address",
          "name": "to",
          "type": "address"
        },
        {
          "indexed": false,
          "internalType": "uint256",
          "name": "value",
          "type": "uint256"
        }
      ],
      "name": "Transfer",
      "type": "event"
    },
    {
      "inputs": [
        {
          "internalType": "address",
          "name": "owner",
          "type": "address"
        },
        {
          "internalType": "address",
          "name": "spender",
          "type": "address"
        }
      ],
      "name": "allowance",
      "outputs": [
        {
          "internalType": "uint256",
          "name": "",
          "type": "uint256"
        }
      ],
      "stateMutability": "view",
      "type": "function",
      "constant": true
    },
    {
      "inputs": [
        {
          "internalType": "address",
          "name": "",
          "type": "address"
        }
      ],
      "name": "amountStaked",
      "outputs": [
        {
          "internalType": "uint256",
          "name": "",
          "type": "uint256"
        }
      ],
      "stateMutability": "view",
      "type": "function",
      "constant": true
    },
    {
      "inputs": [
        {
          "internalType": "address",
          "name": "spender",
          "type": "address"
        },
        {
          "internalType": "uint256",
          "name": "amount",
          "type": "uint256"
        }
      ],
      "name": "approve",
      "outputs": [
        {
          "internalType": "bool",
          "name": "",
          "type": "bool"
        }
      ],
      "stateMutability": "nonpayable",
      "type": "function"
    },
    {
      "inputs": [
        {
          "internalType": "address",
          "name": "account",
          "type": "address"
        }
      ],
      "name": "balanceOf",
      "outputs": [
        {
          "internalType": "uint256",
          "name": "",
          "type": "uint256"
        }
      ],
      "stateMutability": "view",
      "type": "function",
      "constant": true
    },
    {
      "inputs": [
        {
          "internalType": "uint256",
          "name": "amount",
          "type": "uint256"
        }
      ],
      "name": "burn",
      "outputs": [],
      "stateMutability": "nonpayable",
      "type": "function"
    },
    {
      "inputs": [
        {
          "internalType": "address",
          "name": "account",
          "type": "address"
        },
        {
          "internalType": "uint256",
          "name": "amount",
          "type": "uint256"
        }
      ],
      "name": "burnFrom",
      "outputs": [],
      "stateMutability": "nonpayable",
      "type": "function"
    },
    {
      "inputs": [],
      "name": "decimals",
      "outputs": [
        {
          "internalType": "uint8",
          "name": "",
          "type": "uint8"
        }
      ],
      "stateMutability": "view",
      "type": "function",
      "constant": true
    },
    {
      "inputs": [
        {
          "internalType": "address",
          "name": "spender",
          "type": "address"
        },
        {
          "internalType": "uint256",
          "name": "subtractedValue",
          "type": "uint256"
        }
      ],
      "name": "decreaseAllowance",
      "outputs": [
        {
          "internalType": "bool",
          "name": "",
          "type": "bool"
        }
      ],
      "stateMutability": "nonpayable",
      "type": "function"
    },
    {
      "inputs": [
        {
          "internalType": "address",
          "name": "",
          "type": "address"
        }
      ],
      "name": "hasClaimed",
      "outputs": [
        {
          "internalType": "bool",
          "name": "",
          "type": "bool"
        }
      ],
      "stateMutability": "view",
      "type": "function",
      "constant": true
    },
    {
      "inputs": [
        {
          "internalType": "address",
          "name": "spender",
          "type": "address"
        },
        {
          "internalType": "uint256",
          "name": "addedValue",
          "type": "uint256"
        }
      ],
      "name": "increaseAllowance",
      "outputs": [
        {
          "internalType": "bool",
          "name": "",
          "type": "bool"
        }
      ],
      "stateMutability": "nonpayable",
      "type": "function"
    },
    {
      "inputs": [],
      "name": "name",
      "outputs": [
        {
          "internalType": "string",
          "name": "",
          "type": "string"
        }
      ],
      "stateMutability": "view",
      "type": "function",
      "constant": true
    },
    {
      "inputs": [],
      "name": "owner",
      "outputs": [
        {
          "internalType": "address",
          "name": "",
          "type": "address"
        }
      ],
      "stateMutability": "view",
      "type": "function",
      "constant": true
    },
    {
      "inputs": [],
      "name": "renounceOwnership",
      "outputs": [],
      "stateMutability": "nonpayable",
      "type": "function"
    },
    {
      "inputs": [
        {
          "internalType": "address",
          "name": "",
          "type": "address"
        }
      ],
      "name": "stakeTimer",
      "outputs": [
        {
          "internalType": "uint256",
          "name": "",
          "type": "uint256"
        }
      ],
      "stateMutability": "view",
      "type": "function",
      "constant": true
    },
    {
      "inputs": [],
      "name": "symbol",
      "outputs": [
        {
          "internalType": "string",
          "name": "",
          "type": "string"
        }
      ],
      "stateMutability": "view",
      "type": "function",
      "constant": true
    },
    {
      "inputs": [],
      "name": "totalSupply",
      "outputs": [
        {
          "internalType": "uint256",
          "name": "",
          "type": "uint256"
        }
      ],
      "stateMutability": "view",
      "type": "function",
      "constant": true
    },
    {
      "inputs": [
        {
          "internalType": "address",
          "name": "to",
          "type": "address"
        },
        {
          "internalType": "uint256",
          "name": "amount",
          "type": "uint256"
        }
      ],
      "name": "transfer",
      "outputs": [
        {
          "internalType": "bool",
          "name": "",
          "type": "bool"
        }
      ],
      "stateMutability": "nonpayable",
      "type": "function"
    },
    {
      "inputs": [
        {
          "internalType": "address",
          "name": "from",
          "type": "address"
        },
        {
          "internalType": "address",
          "name": "to",
          "type": "address"
        },
        {
          "internalType": "uint256",
          "name": "amount",
          "type": "uint256"
        }
      ],
      "name": "transferFrom",
      "outputs": [
        {
          "internalType": "bool",
          "name": "",
          "type": "bool"
        }
      ],
      "stateMutability": "nonpayable",
      "type": "function"
    },
    {
      "inputs": [
        {
          "internalType": "address",
          "name": "newOwner",
          "type": "address"
        }
      ],
      "name": "transferOwnership",
      "outputs": [],
      "stateMutability": "nonpayable",
      "type": "function"
    },
    {
      "stateMutability": "payable",
      "type": "receive",
      "payable": true
    },
    {
      "inputs": [],
      "name": "claimTokens",
      "outputs": [],
      "stateMutability": "nonpayable",
      "type": "function"
    },
    {
      "inputs": [],
      "name": "claimEarnings",
      "outputs": [],
      "stateMutability": "nonpayable",
      "type": "function"
    },
    {
      "inputs": [],
      "name": "withdrawFunds",
      "outputs": [
        {
          "internalType": "bool",
          "name": "",
          "type": "bool"
        }
      ],
      "stateMutability": "nonpayable",
      "type": "function"
    },
    {
      "inputs": [
        {
          "internalType": "uint256",
          "name": "_amount",
          "type": "uint256"
        }
      ],
      "name": "stake",
      "outputs": [],
      "stateMutability": "nonpayable",
      "type": "function"
    },
    {
      "inputs": [
        {
          "internalType": "uint256",
          "name": "_amount",
          "type": "uint256"
        }
      ],
      "name": "unstake",
      "outputs": [],
      "stateMutability": "nonpayable",
      "type": "function"
    },
    {
      "inputs": [],
      "name": "stakeAll",
      "outputs": [],
      "stateMutability": "nonpayable",
      "type": "function"
    },
    {
      "inputs": [],
      "name": "unstakeAll",
      "outputs": [],
      "stateMutability": "nonpayable",
      "type": "function"
    },
    {
      "inputs": [],
      "name": "burnAll",
      "outputs": [],
      "stateMutability": "nonpayable",
      "type": "function"
    },
    {
      "inputs": [],
      "name": "getAllRewards",
      "outputs": [
        {
          "internalType": "uint256",
          "name": "",
          "type": "uint256"
        }
      ],
      "stateMutability": "view",
      "type": "function",
      "constant": true
    }
  ],
  "bytecode": "0x60a060405264e8d4a5100067ffffffffffffffff1660809067ffffffffffffffff16815250620186a0600760006101000a81548163ffffffff021916908363ffffffff1602179055503480156200005557600080fd5b506040518060400160405280600881526020017f44616e546f6b656e0000000000000000000000000000000000000000000000008152506040518060400160405280600381526020017f44544b00000000000000000000000000000000000000000000000000000000008152508160039081620000d3919062000647565b508060049081620000e5919062000647565b50505062000108620000fc6200018860201b60201c565b6200019060201b60201c565b600160068190555060006009600a608051620001259190620007a0565b620001319190620007d8565b67ffffffffffffffff1690506000600a608051620001509190620007a0565b67ffffffffffffffff1690506200016e33826200025660201b60201c565b6200018030836200025660201b60201c565b50506200090a565b600033905090565b6000600560009054906101000a900473ffffffffffffffffffffffffffffffffffffffff16905081600560006101000a81548173ffffffffffffffffffffffffffffffffffffffff021916908373ffffffffffffffffffffffffffffffffffffffff1602179055508173ffffffffffffffffffffffffffffffffffffffff168173ffffffffffffffffffffffffffffffffffffffff167f8be0079c531659141344cd1fd0a4f28419497f9722a3daafe3b4186f6b6457e060405160405180910390a35050565b600073ffffffffffffffffffffffffffffffffffffffff168273ffffffffffffffffffffffffffffffffffffffff1603620002c8576040517f08c379a0000000000000000000000000000000000000000000000000000000008152600401620002bf906200087f565b60405180910390fd5b620002dc60008383620003c360201b60201c565b8060026000828254620002f09190620008a1565b92505081905550806000808473ffffffffffffffffffffffffffffffffffffffff1673ffffffffffffffffffffffffffffffffffffffff168152602001908152602001600020600082825401925050819055508173ffffffffffffffffffffffffffffffffffffffff16600073ffffffffffffffffffffffffffffffffffffffff167fddf252ad1be2c89b69c2b068fc378daa952ba7f163c4a11628f55a4df523b3ef83604051620003a39190620008ed565b60405180910390a3620003bf60008383620003c860201b60201c565b5050565b505050565b505050565b600081519050919050565b7f4e487b7100000000000000000000000000000000000000000000000000000000600052604160045260246000fd5b7f4e487b7100000000000000000000000000000000000000000000000000000000600052602260045260246000fd5b600060028204905060018216806200044f57607f821691505b60208210810362000465576200046462000407565b5b50919050565b60008190508160005260206000209050919050565b60006020601f8301049050919050565b600082821b905092915050565b600060088302620004cf7fffffffffffffffffffffffffffffffffffffffffffffffffffffffffffffffff8262000490565b620004db868362000490565b95508019841693508086168417925050509392505050565b6000819050919050565b6000819050919050565b600062000528620005226200051c84620004f3565b620004fd565b620004f3565b9050919050565b6000819050919050565b620005448362000507565b6200055c62000553826200052f565b8484546200049d565b825550505050565b600090565b6200057362000564565b6200058081848462000539565b505050565b5b81811015620005a8576200059c60008262000569565b60018101905062000586565b5050565b601f821115620005f757620005c1816200046b565b620005cc8462000480565b81016020851015620005dc578190505b620005f4620005eb8562000480565b83018262000585565b50505b505050565b600082821c905092915050565b60006200061c60001984600802620005fc565b1980831691505092915050565b600062000637838362000609565b9150826002028217905092915050565b6200065282620003cd565b67ffffffffffffffff8111156200066e576200066d620003d8565b5b6200067a825462000436565b62000687828285620005ac565b600060209050601f831160018114620006bf5760008415620006aa578287015190505b620006b6858262000629565b86555062000726565b601f198416620006cf866200046b565b60005b82811015620006f957848901518255600182019150602085019450602081019050620006d2565b8683101562000719578489015162000715601f89168262000609565b8355505b6001600288020188555050505b505050505050565b600067ffffffffffffffff82169050919050565b7f4e487b7100000000000000000000000000000000000000000000000000000000600052601260045260246000fd5b7f4e487b7100000000000000000000000000000000000000000000000000000000600052601160045260246000fd5b6000620007ad826200072e565b9150620007ba836200072e565b925082620007cd57620007cc62000742565b5b828204905092915050565b6000620007e5826200072e565b9150620007f2836200072e565b925082820262000802816200072e565b915080821462000817576200081662000771565b5b5092915050565b600082825260208201905092915050565b7f45524332303a206d696e7420746f20746865207a65726f206164647265737300600082015250565b600062000867601f836200081e565b915062000874826200082f565b602082019050919050565b600060208201905081810360008301526200089a8162000858565b9050919050565b6000620008ae82620004f3565b9150620008bb83620004f3565b9250828201905080821115620008d657620008d562000771565b5b92915050565b620008e781620004f3565b82525050565b6000602082019050620009046000830184620008dc565b92915050565b608051612f156200092360003960005050612f156000f3fe6080604052600436106101bb5760003560e01c806373b2e80e116100ec578063a457c2d71161008a578063d9ceab1311610064578063d9ceab13146105f3578063dd62ed3e1461060a578063ef40a67014610647578063f2fde38b14610684576101c2565b8063a457c2d714610550578063a694fc3a1461058d578063a9059cbb146105b6576101c2565b80638dcb4061116100c65780638dcb4061146104ba57806395d89b41146104d15780639975038c146104fc578063a0fc0c9714610513576101c2565b806373b2e80e1461042957806379cc6790146104665780638da5cb5b1461048f576101c2565b806335322f371161015957806345b35f561161013357806345b35f561461039357806348c54b9d146103be57806370a08231146103d5578063715018a614610412576101c2565b806335322f3714610316578063395093511461032d57806342966c681461036a576101c2565b806323b872dd1161019557806323b872dd1461025a57806324600fc3146102975780632e17de78146102c2578063313ce567146102eb576101c2565b806306fdde03146101c7578063095ea7b3146101f257806318160ddd1461022f576101c2565b366101c257005b600080fd5b3480156101d357600080fd5b506101dc6106ad565b6040516101e99190611fa7565b60405180910390f35b3480156101fe57600080fd5b5061021960048036038101906102149190612062565b61073f565b60405161022691906120bd565b60405180910390f35b34801561023b57600080fd5b50610244610762565b60405161025191906120e7565b60405180910390f35b34801561026657600080fd5b50610281600480360381019061027c9190612102565b61076c565b60405161028e91906120bd565b60405180910390f35b3480156102a357600080fd5b506102ac61079b565b6040516102b991906120bd565b60405180910390f35b3480156102ce57600080fd5b506102e960048036038101906102e49190612155565b61081e565b005b3480156102f757600080fd5b506103006109f8565b60405161030d919061219e565b60405180910390f35b34801561032257600080fd5b5061032b610a01565b005b34801561033957600080fd5b50610354600480360381019061034f9190612062565b610bbc565b60405161036191906120bd565b60405180910390f35b34801561037657600080fd5b50610391600480360381019061038c9190612155565b610bf3565b005b34801561039f57600080fd5b506103a8610c07565b6040516103b591906120e7565b60405180910390f35b3480156103ca57600080fd5b506103d3610c16565b005b3480156103e157600080fd5b506103fc60048036038101906103f791906121b9565b610d26565b60405161040991906120e7565b60405180910390f35b34801561041e57600080fd5b50610427610d6e565b005b34801561043557600080fd5b50610450600480360381019061044b91906121b9565b610d82565b60405161045d91906120bd565b60405180910390f35b34801561047257600080fd5b5061048d60048036038101906104889190612062565b610da2565b005b34801561049b57600080fd5b506104a4610dc2565b6040516104b191906121f5565b60405180910390f35b3480156104c657600080fd5b506104cf610dec565b005b3480156104dd57600080fd5b506104e6610f41565b6040516104f39190611fa7565b60405180910390f35b34801561050857600080fd5b50610511610fd3565b005b34801561051f57600080fd5b5061053a600480360381019061053591906121b9565b611030565b60405161054791906120e7565b60405180910390f35b34801561055c57600080fd5b5061057760048036038101906105729190612062565b611048565b60405161058491906120bd565b60405180910390f35b34801561059957600080fd5b506105b460048036038101906105af9190612155565b6110bf565b005b3480156105c257600080fd5b506105dd60048036038101906105d89190612062565b611262565b6040516105ea91906120bd565b60405180910390f35b3480156105ff57600080fd5b50610608611285565b005b34801561061657600080fd5b50610631600480360381019061062c9190612210565b6113b5565b60405161063e91906120e7565b60405180910390f35b34801561065357600080fd5b5061066e600480360381019061066991906121b9565b61143c565b60405161067b91906120e7565b60405180910390f35b34801561069057600080fd5b506106ab60048036038101906106a691906121b9565b611454565b005b6060600380546106bc9061227f565b80601f01602080910402602001604051908101604052809291908181526020018280546106e89061227f565b80156107355780601f1061070a57610100808354040283529160200191610735565b820191906000526020600020905b81548152906001019060200180831161071857829003601f168201915b5050505050905090565b60008061074a6114d7565b90506107578185856114df565b600191505092915050565b6000600254905090565b6000806107776114d7565b90506107848582856116a8565b61078f858585611734565b60019150509392505050565b60006107a56119aa565b600047905060003373ffffffffffffffffffffffffffffffffffffffff16826040516107d0906122e1565b60006040518083038185875af1925050503d806000811461080d576040519150601f19603f3d011682016040523d82523d6000602084013e610812565b606091505b50509050809250505090565b610826611a28565b60008111610869576040517f08c379a000000000000000000000000000000000000000000000000000000000815260040161086090612342565b60405180910390fd5b80600860003373ffffffffffffffffffffffffffffffffffffffff1673ffffffffffffffffffffffffffffffffffffffff1681526020019081526020016000205410156108eb576040517f08c379a00000000000000000000000000000000000000000000000000000000081526004016108e2906123d4565b60405180910390fd5b6108f3611a77565b600960003373ffffffffffffffffffffffffffffffffffffffff1673ffffffffffffffffffffffffffffffffffffffff16815260200190815260200160002060008282546109419190612423565b9250508190555042600a60003373ffffffffffffffffffffffffffffffffffffffff1673ffffffffffffffffffffffffffffffffffffffff1681526020019081526020016000208190555080600860003373ffffffffffffffffffffffffffffffffffffffff1673ffffffffffffffffffffffffffffffffffffffff16815260200190815260200160002060008282546109db9190612457565b925050819055506109ed303383611734565b6109f5611bc0565b50565b60006012905090565b6000600860003373ffffffffffffffffffffffffffffffffffffffff1673ffffffffffffffffffffffffffffffffffffffff1681526020019081526020016000205411610a83576040517f08c379a0000000000000000000000000000000000000000000000000000000008152600401610a7a906124fd565b60405180910390fd5b610a8b611a77565b600960003373ffffffffffffffffffffffffffffffffffffffff1673ffffffffffffffffffffffffffffffffffffffff1681526020019081526020016000206000828254610ad99190612423565b925050819055506000600860003373ffffffffffffffffffffffffffffffffffffffff1673ffffffffffffffffffffffffffffffffffffffff1681526020019081526020016000205490506000600860003373ffffffffffffffffffffffffffffffffffffffff1673ffffffffffffffffffffffffffffffffffffffff168152602001908152602001600020819055506000600a60003373ffffffffffffffffffffffffffffffffffffffff1673ffffffffffffffffffffffffffffffffffffffff16815260200190815260200160002081905550610bb9303383611734565b50565b600080610bc76114d7565b9050610be8818585610bd985896113b5565b610be39190612423565b6114df565b600191505092915050565b610c04610bfe6114d7565b82611bca565b50565b6000610c11611d97565b905090565b60001515600b60003373ffffffffffffffffffffffffffffffffffffffff1673ffffffffffffffffffffffffffffffffffffffff16815260200190815260200160002060009054906101000a900460ff16151514610ca9576040517f08c379a0000000000000000000000000000000000000000000000000000000008152600401610ca09061258f565b60405180910390fd5b6001600b60003373ffffffffffffffffffffffffffffffffffffffff1673ffffffffffffffffffffffffffffffffffffffff16815260200190815260200160002060006101000a81548160ff021916908315150217905550610d243033600760009054906101000a900463ffffffff1663ffffffff16611734565b565b60008060008373ffffffffffffffffffffffffffffffffffffffff1673ffffffffffffffffffffffffffffffffffffffff168152602001908152602001600020549050919050565b610d766119aa565b610d806000611e47565b565b600b6020528060005260406000206000915054906101000a900460ff1681565b610db482610dae6114d7565b836116a8565b610dbe8282611bca565b5050565b6000600560009054906101000a900473ffffffffffffffffffffffffffffffffffffffff16905090565b6000610df733610d26565b905060008111610e3c576040517f08c379a0000000000000000000000000000000000000000000000000000000008152600401610e33906125fb565b60405180910390fd5b610e44611a77565b600960003373ffffffffffffffffffffffffffffffffffffffff1673ffffffffffffffffffffffffffffffffffffffff1681526020019081526020016000206000828254610e929190612423565b9250508190555042600a60003373ffffffffffffffffffffffffffffffffffffffff1673ffffffffffffffffffffffffffffffffffffffff1681526020019081526020016000208190555080600860003373ffffffffffffffffffffffffffffffffffffffff1673ffffffffffffffffffffffffffffffffffffffff1681526020019081526020016000206000828254610f2c9190612423565b92505081905550610f3e333083611734565b50565b606060048054610f509061227f565b80601f0160208091040260200160405190810160405280929190818152602001828054610f7c9061227f565b8015610fc95780601f10610f9e57610100808354040283529160200191610fc9565b820191906000526020600020905b815481529060010190602001808311610fac57829003601f168201915b5050505050905090565b6000610fde33610d26565b905060008111611023576040517f08c379a000000000000000000000000000000000000000000000000000000000815260040161101a90612667565b60405180910390fd5b61102d3382611bca565b50565b600a6020528060005260406000206000915090505481565b6000806110536114d7565b9050600061106182866113b5565b9050838110156110a6576040517f08c379a000000000000000000000000000000000000000000000000000000000815260040161109d906126f9565b60405180910390fd5b6110b382868684036114df565b60019250505092915050565b6110c7611a28565b6000811161110a576040517f08c379a000000000000000000000000000000000000000000000000000000000815260040161110190612765565b60405180910390fd5b8061111433610d26565b1015611155576040517f08c379a000000000000000000000000000000000000000000000000000000000815260040161114c906127d1565b60405180910390fd5b61115d611a77565b600960003373ffffffffffffffffffffffffffffffffffffffff1673ffffffffffffffffffffffffffffffffffffffff16815260200190815260200160002060008282546111ab9190612423565b9250508190555042600a60003373ffffffffffffffffffffffffffffffffffffffff1673ffffffffffffffffffffffffffffffffffffffff1681526020019081526020016000208190555080600860003373ffffffffffffffffffffffffffffffffffffffff1673ffffffffffffffffffffffffffffffffffffffff16815260200190815260200160002060008282546112459190612423565b92505081905550611257333083611734565b61125f611bc0565b50565b60008061126d6114d7565b905061127a818585611734565b600191505092915050565b600061128f611d97565b9050600081116112d4576040517f08c379a00000000000000000000000000000000000000000000000000000000081526004016112cb9061283d565b60405180910390fd5b806112de30610d26565b1161131e576040517f08c379a0000000000000000000000000000000000000000000000000000000008152600401611315906128a9565b60405180910390fd5b6000600960003373ffffffffffffffffffffffffffffffffffffffff1673ffffffffffffffffffffffffffffffffffffffff1681526020019081526020016000208190555042600a60003373ffffffffffffffffffffffffffffffffffffffff1673ffffffffffffffffffffffffffffffffffffffff168152602001908152602001600020819055506113b2303383611734565b50565b6000600160008473ffffffffffffffffffffffffffffffffffffffff1673ffffffffffffffffffffffffffffffffffffffff16815260200190815260200160002060008373ffffffffffffffffffffffffffffffffffffffff1673ffffffffffffffffffffffffffffffffffffffff16815260200190815260200160002054905092915050565b60086020528060005260406000206000915090505481565b61145c6119aa565b600073ffffffffffffffffffffffffffffffffffffffff168173ffffffffffffffffffffffffffffffffffffffff16036114cb576040517f08c379a00000000000000000000000000000000000000000000000000000000081526004016114c29061293b565b60405180910390fd5b6114d481611e47565b50565b600033905090565b600073ffffffffffffffffffffffffffffffffffffffff168373ffffffffffffffffffffffffffffffffffffffff160361154e576040517f08c379a0000000000000000000000000000000000000000000000000000000008152600401611545906129cd565b60405180910390fd5b600073ffffffffffffffffffffffffffffffffffffffff168273ffffffffffffffffffffffffffffffffffffffff16036115bd576040517f08c379a00000000000000000000000000000000000000000000000000000000081526004016115b490612a5f565b60405180910390fd5b80600160008573ffffffffffffffffffffffffffffffffffffffff1673ffffffffffffffffffffffffffffffffffffffff16815260200190815260200160002060008473ffffffffffffffffffffffffffffffffffffffff1673ffffffffffffffffffffffffffffffffffffffff168152602001908152602001600020819055508173ffffffffffffffffffffffffffffffffffffffff168373ffffffffffffffffffffffffffffffffffffffff167f8c5be1e5ebec7d5bd14f71427d1e84f3dd0314c0f7b2291e5b200ac8c7c3b9258360405161169b91906120e7565b60405180910390a3505050565b60006116b484846113b5565b90507fffffffffffffffffffffffffffffffffffffffffffffffffffffffffffffffff811461172e5781811015611720576040517f08c379a000000000000000000000000000000000000000000000000000000000815260040161171790612acb565b60405180910390fd5b61172d84848484036114df565b5b50505050565b600073ffffffffffffffffffffffffffffffffffffffff168373ffffffffffffffffffffffffffffffffffffffff16036117a3576040517f08c379a000000000000000000000000000000000000000000000000000000000815260040161179a90612b5d565b60405180910390fd5b600073ffffffffffffffffffffffffffffffffffffffff168273ffffffffffffffffffffffffffffffffffffffff1603611812576040517f08c379a000000000000000000000000000000000000000000000000000000000815260040161180990612bef565b60405180910390fd5b61181d838383611f0d565b60008060008573ffffffffffffffffffffffffffffffffffffffff1673ffffffffffffffffffffffffffffffffffffffff168152602001908152602001600020549050818110156118a3576040517f08c379a000000000000000000000000000000000000000000000000000000000815260040161189a90612c81565b60405180910390fd5b8181036000808673ffffffffffffffffffffffffffffffffffffffff1673ffffffffffffffffffffffffffffffffffffffff16815260200190815260200160002081905550816000808573ffffffffffffffffffffffffffffffffffffffff1673ffffffffffffffffffffffffffffffffffffffff168152602001908152602001600020600082825401925050819055508273ffffffffffffffffffffffffffffffffffffffff168473ffffffffffffffffffffffffffffffffffffffff167fddf252ad1be2c89b69c2b068fc378daa952ba7f163c4a11628f55a4df523b3ef8460405161199191906120e7565b60405180910390a36119a4848484611f12565b50505050565b6119b26114d7565b73ffffffffffffffffffffffffffffffffffffffff166119d0610dc2565b73ffffffffffffffffffffffffffffffffffffffff1614611a26576040517f08c379a0000000000000000000000000000000000000000000000000000000008152600401611a1d90612ced565b60405180910390fd5b565b600260065403611a6d576040517f08c379a0000000000000000000000000000000000000000000000000000000008152600401611a6490612d59565b60405180910390fd5b6002600681905550565b600080600a60003373ffffffffffffffffffffffffffffffffffffffff1673ffffffffffffffffffffffffffffffffffffffff1681526020019081526020016000205403611ac85760009050611bbd565b6000600a60003373ffffffffffffffffffffffffffffffffffffffff1673ffffffffffffffffffffffffffffffffffffffff1681526020019081526020016000205442611b159190612457565b90506000600860003373ffffffffffffffffffffffffffffffffffffffff1673ffffffffffffffffffffffffffffffffffffffff16815260200190815260200160002054905060008103611bac57600960003373ffffffffffffffffffffffffffffffffffffffff1673ffffffffffffffffffffffffffffffffffffffff1681526020019081526020016000205492505050611bbd565b8181611bb89190612d79565b925050505b90565b6001600681905550565b600073ffffffffffffffffffffffffffffffffffffffff168273ffffffffffffffffffffffffffffffffffffffff1603611c39576040517f08c379a0000000000000000000000000000000000000000000000000000000008152600401611c3090612e2d565b60405180910390fd5b611c4582600083611f0d565b60008060008473ffffffffffffffffffffffffffffffffffffffff1673ffffffffffffffffffffffffffffffffffffffff16815260200190815260200160002054905081811015611ccb576040517f08c379a0000000000000000000000000000000000000000000000000000000008152600401611cc290612ebf565b60405180910390fd5b8181036000808573ffffffffffffffffffffffffffffffffffffffff1673ffffffffffffffffffffffffffffffffffffffff1681526020019081526020016000208190555081600260008282540392505081905550600073ffffffffffffffffffffffffffffffffffffffff168373ffffffffffffffffffffffffffffffffffffffff167fddf252ad1be2c89b69c2b068fc378daa952ba7f163c4a11628f55a4df523b3ef84604051611d7e91906120e7565b60405180910390a3611d9283600084611f12565b505050565b600080611da2611a77565b1115611e0157611db0611a77565b600960003373ffffffffffffffffffffffffffffffffffffffff1673ffffffffffffffffffffffffffffffffffffffff16815260200190815260200160002054611dfa9190612423565b9050611e44565b600960003373ffffffffffffffffffffffffffffffffffffffff1673ffffffffffffffffffffffffffffffffffffffff1681526020019081526020016000205490505b90565b6000600560009054906101000a900473ffffffffffffffffffffffffffffffffffffffff16905081600560006101000a81548173ffffffffffffffffffffffffffffffffffffffff021916908373ffffffffffffffffffffffffffffffffffffffff1602179055508173ffffffffffffffffffffffffffffffffffffffff168173ffffffffffffffffffffffffffffffffffffffff167f8be0079c531659141344cd1fd0a4f28419497f9722a3daafe3b4186f6b6457e060405160405180910390a35050565b505050565b505050565b600081519050919050565b600082825260208201905092915050565b60005b83811015611f51578082015181840152602081019050611f36565b60008484015250505050565b6000601f19601f8301169050919050565b6000611f7982611f17565b611f838185611f22565b9350611f93818560208601611f33565b611f9c81611f5d565b840191505092915050565b60006020820190508181036000830152611fc18184611f6e565b905092915050565b600080fd5b600073ffffffffffffffffffffffffffffffffffffffff82169050919050565b6000611ff982611fce565b9050919050565b61200981611fee565b811461201457600080fd5b50565b60008135905061202681612000565b92915050565b6000819050919050565b61203f8161202c565b811461204a57600080fd5b50565b60008135905061205c81612036565b92915050565b6000806040838503121561207957612078611fc9565b5b600061208785828601612017565b92505060206120988582860161204d565b9150509250929050565b60008115159050919050565b6120b7816120a2565b82525050565b60006020820190506120d260008301846120ae565b92915050565b6120e18161202c565b82525050565b60006020820190506120fc60008301846120d8565b92915050565b60008060006060848603121561211b5761211a611fc9565b5b600061212986828701612017565b935050602061213a86828701612017565b925050604061214b8682870161204d565b9150509250925092565b60006020828403121561216b5761216a611fc9565b5b60006121798482850161204d565b91505092915050565b600060ff82169050919050565b61219881612182565b82525050565b60006020820190506121b3600083018461218f565b92915050565b6000602082840312156121cf576121ce611fc9565b5b60006121dd84828501612017565b91505092915050565b6121ef81611fee565b82525050565b600060208201905061220a60008301846121e6565b92915050565b6000806040838503121561222757612226611fc9565b5b600061223585828601612017565b925050602061224685828601612017565b9150509250929050565b7f4e487b7100000000000000000000000000000000000000000000000000000000600052602260045260246000fd5b6000600282049050600182168061229757607f821691505b6020821081036122aa576122a9612250565b5b50919050565b600081905092915050565b50565b60006122cb6000836122b0565b91506122d6826122bb565b600082019050919050565b60006122ec826122be565b9150819050919050565b7f416d6f756e7420746f20756e7374616b652063616e6e6f742062652030000000600082015250565b600061232c601d83611f22565b9150612337826122f6565b602082019050919050565b6000602082019050818103600083015261235b8161231f565b9050919050565b7f596f7520646f6e277420686176652074686174206d616e7920746f6b656e732060008201527f7374616b65640000000000000000000000000000000000000000000000000000602082015250565b60006123be602683611f22565b91506123c982612362565b604082019050919050565b600060208201905081810360008301526123ed816123b1565b9050919050565b7f4e487b7100000000000000000000000000000000000000000000000000000000600052601160045260246000fd5b600061242e8261202c565b91506124398361202c565b9250828201905080821115612451576124506123f4565b5b92915050565b60006124628261202c565b915061246d8361202c565b9250828203905081811115612485576124846123f4565b5b92915050565b7f596f7520686176656e277420676f7420616e7920746f6b656e73207374616b6560008201527f6400000000000000000000000000000000000000000000000000000000000000602082015250565b60006124e7602183611f22565b91506124f28261248b565b604082019050919050565b60006020820190508181036000830152612516816124da565b9050919050565b7f596f75206861766520616c726561647920636c61696d656420796f757220616c60008201527f6c6f636174656420746f6b656e732e0000000000000000000000000000000000602082015250565b6000612579602f83611f22565b91506125848261251d565b604082019050919050565b600060208201905081810360008301526125a88161256c565b9050919050565b7f596f7520646f6e2774206861766520616e797468696e6720746f207374616b65600082015250565b60006125e5602083611f22565b91506125f0826125af565b602082019050919050565b60006020820190508181036000830152612614816125d8565b9050919050565b7f596f7520646f6e2774206861766520616e797468696e6720746f206275726e00600082015250565b6000612651601f83611f22565b915061265c8261261b565b602082019050919050565b6000602082019050818103600083015261268081612644565b9050919050565b7f45524332303a2064656372656173656420616c6c6f77616e63652062656c6f7760008201527f207a65726f000000000000000000000000000000000000000000000000000000602082015250565b60006126e3602583611f22565b91506126ee82612687565b604082019050919050565b60006020820190508181036000830152612712816126d6565b9050919050565b7f416d6f756e7420746f207374616b652063616e6e6f7420626520300000000000600082015250565b600061274f601b83611f22565b915061275a82612719565b602082019050919050565b6000602082019050818103600083015261277e81612742565b9050919050565b7f596f7520646f6e2774206f776e2074686174206d616e7920746f6b656e730000600082015250565b60006127bb601e83611f22565b91506127c682612785565b602082019050919050565b600060208201905081810360008301526127ea816127ae565b9050919050565b7f596f7520686176656e2774206561726e656420616e797468696e670000000000600082015250565b6000612827601b83611f22565b9150612832826127f1565b602082019050919050565b600060208201905081810360008301526128568161281a565b9050919050565b7f496e666c6174696f6e206c696d69742072656163686564000000000000000000600082015250565b6000612893601783611f22565b915061289e8261285d565b602082019050919050565b600060208201905081810360008301526128c281612886565b9050919050565b7f4f776e61626c653a206e6577206f776e657220697320746865207a65726f206160008201527f6464726573730000000000000000000000000000000000000000000000000000602082015250565b6000612925602683611f22565b9150612930826128c9565b604082019050919050565b6000602082019050818103600083015261295481612918565b9050919050565b7f45524332303a20617070726f76652066726f6d20746865207a65726f2061646460008201527f7265737300000000000000000000000000000000000000000000000000000000602082015250565b60006129b7602483611f22565b91506129c28261295b565b604082019050919050565b600060208201905081810360008301526129e6816129aa565b9050919050565b7f45524332303a20617070726f766520746f20746865207a65726f20616464726560008201527f7373000000000000000000000000000000000000000000000000000000000000602082015250565b6000612a49602283611f22565b9150612a54826129ed565b604082019050919050565b60006020820190508181036000830152612a7881612a3c565b9050919050565b7f45524332303a20696e73756666696369656e7420616c6c6f77616e6365000000600082015250565b6000612ab5601d83611f22565b9150612ac082612a7f565b602082019050919050565b60006020820190508181036000830152612ae481612aa8565b9050919050565b7f45524332303a207472616e736665722066726f6d20746865207a65726f20616460008201527f6472657373000000000000000000000000000000000000000000000000000000602082015250565b6000612b47602583611f22565b9150612b5282612aeb565b604082019050919050565b60006020820190508181036000830152612b7681612b3a565b9050919050565b7f45524332303a207472616e7366657220746f20746865207a65726f206164647260008201527f6573730000000000000000000000000000000000000000000000000000000000602082015250565b6000612bd9602383611f22565b9150612be482612b7d565b604082019050919050565b60006020820190508181036000830152612c0881612bcc565b9050919050565b7f45524332303a207472616e7366657220616d6f756e742065786365656473206260008201527f616c616e63650000000000000000000000000000000000000000000000000000602082015250565b6000612c6b602683611f22565b9150612c7682612c0f565b604082019050919050565b60006020820190508181036000830152612c9a81612c5e565b9050919050565b7f4f776e61626c653a2063616c6c6572206973206e6f7420746865206f776e6572600082015250565b6000612cd7602083611f22565b9150612ce282612ca1565b602082019050919050565b60006020820190508181036000830152612d0681612cca565b9050919050565b7f5265656e7472616e637947756172643a207265656e7472616e742063616c6c00600082015250565b6000612d43601f83611f22565b9150612d4e82612d0d565b602082019050919050565b60006020820190508181036000830152612d7281612d36565b9050919050565b6000612d848261202c565b9150612d8f8361202c565b9250828202612d9d8161202c565b91508282048414831517612db457612db36123f4565b5b5092915050565b7f45524332303a206275726e2066726f6d20746865207a65726f2061646472657360008201527f7300000000000000000000000000000000000000000000000000000000000000602082015250565b6000612e17602183611f22565b9150612e2282612dbb565b604082019050919050565b60006020820190508181036000830152612e4681612e0a565b9050919050565b7f45524332303a206275726e20616d6f756e7420657863656564732062616c616e60008201527f6365000000000000000000000000000000000000000000000000000000000000602082015250565b6000612ea9602283611f22565b9150612eb482612e4d565b604082019050919050565b60006020820190508181036000830152612ed881612e9c565b905091905056fea2646970667358221220ca362839979f6b5fd509313bd2d6c5c408c6f9937ef9ece25cad5902a2e8569f64736f6c63430008110033",
  "immutableReferences": {},
  "source": "// SPDX-License-Identifier: MIT\r\npragma solidity ^0.8.9;\r\n\r\nimport \"@openzeppelin/contracts/token/ERC20/ERC20.sol\";\r\nimport \"@openzeppelin/contracts/token/ERC20/extensions/ERC20Burnable.sol\";\r\nimport \"@openzeppelin/contracts/access/Ownable.sol\";\r\nimport \"@openzeppelin/contracts/security/ReentrancyGuard.sol\";\r\n\r\n//WARNING: UPDATE TOKENOMICS IF UTILISING, INFLATION VERY HIGH\r\n\r\n/// @custom:security-contact contact@altify.io\r\ncontract DanStakingToken is ERC20, ERC20Burnable, Ownable, ReentrancyGuard {\r\n\r\n    //Max Supply = 1T\r\n    uint64 immutable maxSupply = 1000000000000;\r\n    //Claim = Airdrop Token Claim\r\n    uint32 claim = 100000;\r\n\r\n    //Number of tokens currently staked by User.\r\n    mapping(address => uint) public amountStaked;\r\n    //Current Staking Rewards available to User.\r\n    mapping(address => uint) stakingRewards;\r\n    \r\n    //Timer to calculate Stake Earning Rate\r\n    mapping(address => uint) public stakeTimer;\r\n    mapping(address => bool) public hasClaimed;\r\n\r\n\r\n    constructor() ERC20(\"DanToken\", \"DTK\") {\r\n        //90% to Contract for Distribution, 10% to Team\r\n        uint _toContract = (maxSupply/10)*9;\r\n        uint _toTeam = (maxSupply/10);\r\n\r\n        _mint(msg.sender, _toTeam);\r\n        _mint(address(this), _toContract);\r\n    }\r\n\r\n    receive() external payable {}\r\n\r\n\r\n    //Every Wallet Address can claim 100,000 Tokens.\r\n    function claimTokens() external {\r\n        require(hasClaimed[msg.sender] == false, \"You have already claimed your allocated tokens.\");\r\n        hasClaimed[msg.sender] = true;\r\n        _transfer(address(this), msg.sender, claim);\r\n    }\r\n\r\n    //Claims All Earnings from Staking Pool.\r\n    function claimEarnings() external {\r\n        uint _earnings = _getAllRewards();\r\n        require(_earnings > 0, \"You haven't earned anything\");\r\n        require(balanceOf(address(this)) > _earnings, \"Inflation limit reached\");\r\n\r\n        stakingRewards[msg.sender] = 0;\r\n        stakeTimer[msg.sender] = block.timestamp;\r\n\r\n        _transfer(address(this), msg.sender, _earnings);\r\n    }\r\n\r\n    //Withdraw any ETH Sent to the Contract.\r\n    function withdrawFunds() external onlyOwner returns(bool){\r\n        uint _withdrawable = address(this).balance;\r\n        (bool success, ) = payable(msg.sender).call{value: _withdrawable}(\"\");\r\n        return success;\r\n    }\r\n\r\n\r\n    //Stake tokens at a rate of 1 per token per second.\r\n    function stake(uint _amount) external nonReentrant {\r\n        require(_amount > 0, \"Amount to stake cannot be 0\");\r\n        require(balanceOf(msg.sender) >= _amount, \"You don't own that many tokens\");\r\n        \r\n        stakingRewards[msg.sender] += calculateEarnings();\r\n        stakeTimer[msg.sender] = block.timestamp;\r\n\r\n        amountStaked[msg.sender] += _amount;\r\n        _transfer(msg.sender, address(this), _amount);\r\n    }\r\n\r\n    //Unstake a given amount of tokens.\r\n    function unstake(uint _amount) external  nonReentrant {\r\n        require(_amount > 0, \"Amount to unstake cannot be 0\");\r\n        require(amountStaked[msg.sender] >= _amount, \"You don't have that many tokens staked\");\r\n\r\n        stakingRewards[msg.sender] += calculateEarnings();\r\n        stakeTimer[msg.sender] = block.timestamp;\r\n        \r\n        amountStaked[msg.sender] -= _amount;\r\n        _transfer(address(this), msg.sender, _amount);\r\n    }\r\n\r\n    //Stakes Entire Balance.\r\n    function stakeAll() external {\r\n        uint _balance = balanceOf(msg.sender);\r\n        require(_balance > 0, \"You don't have anything to stake\");\r\n        \r\n        stakingRewards[msg.sender] += calculateEarnings();\r\n        stakeTimer[msg.sender] = block.timestamp;\r\n\r\n        amountStaked[msg.sender] += _balance;\r\n        _transfer(msg.sender, address(this), _balance);\r\n    }\r\n\r\n    //Unstakes All Staked Tokens.\r\n    function unstakeAll() external {\r\n        require(amountStaked[msg.sender] > 0, \"You haven't got any tokens staked\");\r\n\r\n        stakingRewards[msg.sender] += calculateEarnings();\r\n        uint _stake = amountStaked[msg.sender];\r\n\r\n        amountStaked[msg.sender] = 0;\r\n        stakeTimer[msg.sender] = 0;\r\n        _transfer(address(this), msg.sender, _stake);\r\n    }\r\n\r\n    //Burns Entire Balance.\r\n    function burnAll() external {\r\n        uint _balance = balanceOf(msg.sender);\r\n        require(_balance > 0, \"You don't have anything to burn\");\r\n        _burn(msg.sender, _balance);\r\n    }\r\n\r\n    //Calculates Current Earnings from Staking.\r\n    function calculateEarnings() internal view returns(uint) {\r\n        if(stakeTimer[msg.sender] == 0){\r\n            return 0;\r\n        }\r\n\r\n        uint _duration = block.timestamp - stakeTimer[msg.sender];\r\n        uint _currentStakeAmount = amountStaked[msg.sender];\r\n\r\n        if(_currentStakeAmount == 0){\r\n            return stakingRewards[msg.sender];\r\n        } else {\r\n            return (_currentStakeAmount * _duration);    \r\n        }\r\n    }\r\n\r\n    //Getter Function for Stake Earnings.\r\n    function getAllRewards() external view returns(uint){\r\n        return _getAllRewards();\r\n    }\r\n\r\n    //Displays Earnings from Staking Rewards.\r\n    function _getAllRewards() internal view returns(uint){\r\n        if(calculateEarnings() > 0){\r\n            return stakingRewards[msg.sender] + calculateEarnings();\r\n        } else {\r\n            return stakingRewards[msg.sender];\r\n        }\r\n    }\r\n\r\n}",
  "sourcePath": "/mnt/c/Users/danie/OneDrive/Desktop/Programming/Token Contracts/ERC20Staking/contracts/DanStakingToken.sol",
  "compiler": {
    "name": "solc",
    "version": "0.8.17+commit.8df45f5f.Emscripten.clang"
  },
  "schemaVersion": "3.4.11",
  "updatedAt": "2023-01-11T14:44:15.559Z",
  "networkType": "ethereum",
  "devdoc": {
    "custom:security-contact": "contact@altify.io",
    "kind": "dev",
    "methods": {
      "allowance(address,address)": {
        "details": "See {IERC20-allowance}."
      },
      "approve(address,uint256)": {
        "details": "See {IERC20-approve}. NOTE: If `amount` is the maximum `uint256`, the allowance is not updated on `transferFrom`. This is semantically equivalent to an infinite approval. Requirements: - `spender` cannot be the zero address."
      },
      "balanceOf(address)": {
        "details": "See {IERC20-balanceOf}."
      },
      "burn(uint256)": {
        "details": "Destroys `amount` tokens from the caller. See {ERC20-_burn}."
      },
      "burnFrom(address,uint256)": {
        "details": "Destroys `amount` tokens from `account`, deducting from the caller's allowance. See {ERC20-_burn} and {ERC20-allowance}. Requirements: - the caller must have allowance for ``accounts``'s tokens of at least `amount`."
      },
      "decimals()": {
        "details": "Returns the number of decimals used to get its user representation. For example, if `decimals` equals `2`, a balance of `505` tokens should be displayed to a user as `5.05` (`505 / 10 ** 2`). Tokens usually opt for a value of 18, imitating the relationship between Ether and Wei. This is the value {ERC20} uses, unless this function is overridden; NOTE: This information is only used for _display_ purposes: it in no way affects any of the arithmetic of the contract, including {IERC20-balanceOf} and {IERC20-transfer}."
      },
      "decreaseAllowance(address,uint256)": {
        "details": "Atomically decreases the allowance granted to `spender` by the caller. This is an alternative to {approve} that can be used as a mitigation for problems described in {IERC20-approve}. Emits an {Approval} event indicating the updated allowance. Requirements: - `spender` cannot be the zero address. - `spender` must have allowance for the caller of at least `subtractedValue`."
      },
      "increaseAllowance(address,uint256)": {
        "details": "Atomically increases the allowance granted to `spender` by the caller. This is an alternative to {approve} that can be used as a mitigation for problems described in {IERC20-approve}. Emits an {Approval} event indicating the updated allowance. Requirements: - `spender` cannot be the zero address."
      },
      "name()": {
        "details": "Returns the name of the token."
      },
      "owner()": {
        "details": "Returns the address of the current owner."
      },
      "renounceOwnership()": {
        "details": "Leaves the contract without owner. It will not be possible to call `onlyOwner` functions anymore. Can only be called by the current owner. NOTE: Renouncing ownership will leave the contract without an owner, thereby removing any functionality that is only available to the owner."
      },
      "symbol()": {
        "details": "Returns the symbol of the token, usually a shorter version of the name."
      },
      "totalSupply()": {
        "details": "See {IERC20-totalSupply}."
      },
      "transfer(address,uint256)": {
        "details": "See {IERC20-transfer}. Requirements: - `to` cannot be the zero address. - the caller must have a balance of at least `amount`."
      },
      "transferFrom(address,address,uint256)": {
        "details": "See {IERC20-transferFrom}. Emits an {Approval} event indicating the updated allowance. This is not required by the EIP. See the note at the beginning of {ERC20}. NOTE: Does not update the allowance if the current allowance is the maximum `uint256`. Requirements: - `from` and `to` cannot be the zero address. - `from` must have a balance of at least `amount`. - the caller must have allowance for ``from``'s tokens of at least `amount`."
      },
      "transferOwnership(address)": {
        "details": "Transfers ownership of the contract to a new account (`newOwner`). Can only be called by the current owner."
      }
    },
    "version": 1
  },
  "userdoc": {
    "kind": "user",
    "methods": {},
    "version": 1
  }
}